{
  "_format": "hh-sol-artifact-1",
  "contractName": "CrowdFunding",
  "sourceName": "contracts/CrowdFunding.sol",
  "abi": [
    {
      "inputs": [
        {
          "internalType": "uint256",
          "name": "_goalAmount",
          "type": "uint256"
        },
        {
          "internalType": "uint256",
          "name": "_durationInMinutes",
          "type": "uint256"
        }
      ],
      "stateMutability": "nonpayable",
      "type": "constructor"
    },
    {
      "inputs": [],
      "name": "contribute",
      "outputs": [],
      "stateMutability": "payable",
      "type": "function"
    },
    {
      "inputs": [
        {
          "internalType": "address",
          "name": "",
          "type": "address"
        }
      ],
      "name": "contributions",
      "outputs": [
        {
          "internalType": "uint256",
          "name": "",
          "type": "uint256"
        }
      ],
      "stateMutability": "view",
      "type": "function"
    },
    {
      "inputs": [],
      "name": "deadline",
      "outputs": [
        {
          "internalType": "uint256",
          "name": "",
          "type": "uint256"
        }
      ],
      "stateMutability": "view",
      "type": "function"
    },
    {
      "inputs": [],
      "name": "fundsWithdrawn",
      "outputs": [
        {
          "internalType": "bool",
          "name": "",
          "type": "bool"
        }
      ],
      "stateMutability": "view",
      "type": "function"
    },
    {
      "inputs": [],
      "name": "getTimeLeft",
      "outputs": [
        {
          "internalType": "uint256",
          "name": "",
          "type": "uint256"
        }
      ],
      "stateMutability": "view",
      "type": "function"
    },
    {
      "inputs": [],
      "name": "goalAmount",
      "outputs": [
        {
          "internalType": "uint256",
          "name": "",
          "type": "uint256"
        }
      ],
      "stateMutability": "view",
      "type": "function"
    },
    {
      "inputs": [],
      "name": "goalReached",
      "outputs": [
        {
          "internalType": "bool",
          "name": "",
          "type": "bool"
        }
      ],
      "stateMutability": "view",
      "type": "function"
    },
    {
      "inputs": [],
      "name": "owner",
      "outputs": [
        {
          "internalType": "address",
          "name": "",
          "type": "address"
        }
      ],
      "stateMutability": "view",
      "type": "function"
    },
    {
      "inputs": [],
      "name": "refund",
      "outputs": [],
      "stateMutability": "nonpayable",
      "type": "function"
    },
    {
      "inputs": [],
      "name": "totalRaised",
      "outputs": [
        {
          "internalType": "uint256",
          "name": "",
          "type": "uint256"
        }
      ],
      "stateMutability": "view",
      "type": "function"
    },
    {
      "inputs": [],
      "name": "withdrawFunds",
      "outputs": [],
      "stateMutability": "nonpayable",
      "type": "function"
    }
  ],
  "bytecode": "0x608060405234801561001057600080fd5b50604051610e8b380380610e8b833981810160405281019061003291906100d9565b336000806101000a81548173ffffffffffffffffffffffffffffffffffffffff021916908373ffffffffffffffffffffffffffffffffffffffff16021790555081600281905550603c816100869190610148565b42610091919061018a565b60018190555050506101be565b600080fd5b6000819050919050565b6100b6816100a3565b81146100c157600080fd5b50565b6000815190506100d3816100ad565b92915050565b600080604083850312156100f0576100ef61009e565b5b60006100fe858286016100c4565b925050602061010f858286016100c4565b9150509250929050565b7f4e487b7100000000000000000000000000000000000000000000000000000000600052601160045260246000fd5b6000610153826100a3565b915061015e836100a3565b925082820261016c816100a3565b9150828204841483151761018357610182610119565b5b5092915050565b6000610195826100a3565b91506101a0836100a3565b92508282019050808211156101b8576101b7610119565b5b92915050565b610cbe806101cd6000396000f3fe60806040526004361061009c5760003560e01c80637d3d6522116100645780637d3d6522146101625780638da5cb5b1461018d578063ac307fcf146101b8578063c5c4744c146101e3578063c7e284b81461020e578063d7bb99ba146102395761009c565b806324600fc3146100a15780632636b945146100b857806329dcb0cf146100e357806342e94c901461010e578063590e1ae31461014b575b600080fd5b3480156100ad57600080fd5b506100b6610243565b005b3480156100c457600080fd5b506100cd6103f6565b6040516100da9190610775565b60405180910390f35b3480156100ef57600080fd5b506100f86103fc565b6040516101059190610775565b60405180910390f35b34801561011a57600080fd5b50610135600480360381019061013091906107f3565b610402565b6040516101429190610775565b60405180910390f35b34801561015757600080fd5b5061016061041a565b005b34801561016e57600080fd5b506101776105c5565b604051610184919061083b565b60405180910390f35b34801561019957600080fd5b506101a26105d8565b6040516101af9190610865565b60405180910390f35b3480156101c457600080fd5b506101cd6105fc565b6040516101da919061083b565b60405180910390f35b3480156101ef57600080fd5b506101f861060f565b6040516102059190610775565b60405180910390f35b34801561021a57600080fd5b50610223610615565b6040516102309190610775565b60405180910390f35b61024161063d565b005b60008054906101000a900473ffffffffffffffffffffffffffffffffffffffff1673ffffffffffffffffffffffffffffffffffffffff163373ffffffffffffffffffffffffffffffffffffffff16146102d1576040517f08c379a00000000000000000000000000000000000000000000000000000000081526004016102c8906108dd565b60405180910390fd5b600560009054906101000a900460ff16610320576040517f08c379a000000000000000000000000000000000000000000000000000000000815260040161031790610949565b60405180910390fd5b600560019054906101000a900460ff1615610370576040517f08c379a0000000000000000000000000000000000000000000000000000000008152600401610367906109b5565b60405180910390fd5b6001600560016101000a81548160ff02191690831515021790555060008054906101000a900473ffffffffffffffffffffffffffffffffffffffff1673ffffffffffffffffffffffffffffffffffffffff166108fc6003549081150290604051600060405180830381858888f193505050501580156103f3573d6000803e3d6000fd5b50565b60025481565b60015481565b60046020528060005260406000206000915090505481565b60015442101561045f576040517f08c379a000000000000000000000000000000000000000000000000000000000815260040161045690610a21565b60405180910390fd5b600560009054906101000a900460ff16156104af576040517f08c379a00000000000000000000000000000000000000000000000000000000081526004016104a690610a8d565b60405180910390fd5b6000600460003373ffffffffffffffffffffffffffffffffffffffff1673ffffffffffffffffffffffffffffffffffffffff16815260200190815260200160002054905060008111610536576040517f08c379a000000000000000000000000000000000000000000000000000000000815260040161052d90610af9565b60405180910390fd5b6000600460003373ffffffffffffffffffffffffffffffffffffffff1673ffffffffffffffffffffffffffffffffffffffff168152602001908152602001600020819055503373ffffffffffffffffffffffffffffffffffffffff166108fc829081150290604051600060405180830381858888f193505050501580156105c1573d6000803e3d6000fd5b5050565b600560009054906101000a900460ff1681565b60008054906101000a900473ffffffffffffffffffffffffffffffffffffffff1681565b600560019054906101000a900460ff1681565b60035481565b60006001544210610629576000905061063a565b426001546106379190610b48565b90505b90565b6001544210610681576040517f08c379a000000000000000000000000000000000000000000000000000000000815260040161067890610bc8565b60405180910390fd5b600034116106c4576040517f08c379a00000000000000000000000000000000000000000000000000000000081526004016106bb90610c34565b60405180910390fd5b34600460003373ffffffffffffffffffffffffffffffffffffffff1673ffffffffffffffffffffffffffffffffffffffff16815260200190815260200160002060008282546107139190610c54565b92505081905550346003600082825461072c9190610c54565b925050819055506002546003541061075a576001600560006101000a81548160ff0219169083151502179055505b565b6000819050919050565b61076f8161075c565b82525050565b600060208201905061078a6000830184610766565b92915050565b600080fd5b600073ffffffffffffffffffffffffffffffffffffffff82169050919050565b60006107c082610795565b9050919050565b6107d0816107b5565b81146107db57600080fd5b50565b6000813590506107ed816107c7565b92915050565b60006020828403121561080957610808610790565b5b6000610817848285016107de565b91505092915050565b60008115159050919050565b61083581610820565b82525050565b6000602082019050610850600083018461082c565b92915050565b61085f816107b5565b82525050565b600060208201905061087a6000830184610856565b92915050565b600082825260208201905092915050565b7f4f6e6c79206f776e657200000000000000000000000000000000000000000000600082015250565b60006108c7600a83610880565b91506108d282610891565b602082019050919050565b600060208201905081810360008301526108f6816108ba565b9050919050565b7f476f616c206e6f74207265616368656400000000000000000000000000000000600082015250565b6000610933601083610880565b915061093e826108fd565b602082019050919050565b6000602082019050818103600083015261096281610926565b9050919050565b7f416c72656164792077697468647261776e000000000000000000000000000000600082015250565b600061099f601183610880565b91506109aa82610969565b602082019050919050565b600060208201905081810360008301526109ce81610992565b9050919050565b7f43616d706169676e207374696c6c206163746976650000000000000000000000600082015250565b6000610a0b601583610880565b9150610a16826109d5565b602082019050919050565b60006020820190508181036000830152610a3a816109fe565b9050919050565b7f476f616c20776173207265616368656400000000000000000000000000000000600082015250565b6000610a77601083610880565b9150610a8282610a41565b602082019050919050565b60006020820190508181036000830152610aa681610a6a565b9050919050565b7f4e6f20636f6e747269627574696f6e7300000000000000000000000000000000600082015250565b6000610ae3601083610880565b9150610aee82610aad565b602082019050919050565b60006020820190508181036000830152610b1281610ad6565b9050919050565b7f4e487b7100000000000000000000000000000000000000000000000000000000600052601160045260246000fd5b6000610b538261075c565b9150610b5e8361075c565b9250828203905081811115610b7657610b75610b19565b5b92915050565b7f43616d706169676e206f76657200000000000000000000000000000000000000600082015250565b6000610bb2600d83610880565b9150610bbd82610b7c565b602082019050919050565b60006020820190508181036000830152610be181610ba5565b9050919050565b7f436f6e747269627574696f6e206d757374206265203e20300000000000000000600082015250565b6000610c1e601883610880565b9150610c2982610be8565b602082019050919050565b60006020820190508181036000830152610c4d81610c11565b9050919050565b6000610c5f8261075c565b9150610c6a8361075c565b9250828201905080821115610c8257610c81610b19565b5b9291505056fea26469706673582212208d1d29b2d7935aea18957e07d481a3f3a9e9bb7afb13c4732c4a7d56baa30c6264736f6c634300081c0033",
  "linkReferences": {},
  "deployedLinkReferences": {}
}